:02000004085F93
:10C0000000C05F08FCFF5F0800000600200005017B
:08C0100004010D1700000000FF
:10C018001348144908B5884205D0134A824202D011
:10C02800124B121A98471248124A0021124B121A40
:10C03800984712481249884205D0124A824202D0D3
:10C048000A4B121A984710481049884205D0104ADE
:10C05800824202D0054B121A9847014808BD00BF1A
:10C06800689C071088F85F08A8A207102D0D11100A
:10C07800A8A20710FCAF0710A10E111018C83F02A4
:10C08800A8C05F0820C83F0220C83F02B0C05F08B0
:0CC09800F8FF3F0219C05F080000000024
:08C0A8009CC05F0878F63F021E
:10C0B000034613F8012B002AFBD1181A01387047E8
:10C0C00070B502F0D3F90025054E064CA41BA40858
:10C0D000AC4200D170BD56F8043B98470135F7E7F4
:10C0E000D0FF3F02F8FF3F0200F020B808B500F093
:10C0F0007FF8BDE8084002F071B901F031BE01F0EF
:10C100003DBE00000C2008B5024A034901F002FDC3
:10C11000FEE700BFD1DD3F0288F63F020078B0FAAB
:10C1200080F04009704701230370704738B502F072
:10C13000A9FA4FF4165102F095FA002001F0ACFA7A
:10C1400042F210750446002001F0A6FA001B61F1CE
:10C150000001A84271F1000307D202F093FA02F045
:10C1600085FA10B901F0E0FDEDE702F08BFA02F07C
:10C170007DFA3C220221164800F093FF0022144869
:10C18000114601F00DFA02F02DFD4FF4E13102F0FD
:10C19000F3FA10210F4800F091FB0F490D4800F011
:10C1A00035FD0E4D0E490B480E4C00F02FFD0E498B
:10C1B000084800F02BFD2B6822689B1AB3F57A7FA4
:10C1C00005D90A49034802F03CF82B68236038BDC2
:10C1D00038AE0710A8A207109DF63F0234AE071034
:10C1E000CFF63F025CAE0710E0F63F02EFF63F02EB
:10C1F0007047000008B501F041FA104B1049186073
:10C20000104801F0C7FF1049104801F0C3FF4FF07C
:10C21000FF310F4800F0C2FE02F090FD01460D48CC
:10C2200000F0B8FB00220C4B0120C3E90022A2F56C
:10C2300080329A60BDE8084001F07ABC34AE071045
:10C24000FBF63F0270AE07101CF73F0260AE07100E
:10C2500038AE0710A8A2071028AE0710F0B50026C8
:10C2600085B00C469DF830100546DDE90A073F2CE5
:10C270002AD81AB105EB441CCCF8A42062011BB1EA
:10C2800005EB020CCCF8AC3010B1AB18C3F8A80029
:10C2900017B1AB18A3F89C702A4482F89E100A3993
:10C2A000092911D80023611C1A462846C9B2CDE9D4
:10C2B00001660096FFF7D2FF002102340F460846C0
:10C2C0000B460A46E4B2D2E705B0F0BD2DE9F04FC7
:10C2D000002605463446C54F85B0F1B200233A46E4
:10C2E0002846CDE9014400940136FFF7B7FF402E00
:10C2F000F3D1002302264FF00B08BD4F1946284604
:10C30000CDE90144BB4A0094FFF7A8FF2846CDE9D8
:10C31000014600970121B84BB84AFFF79FFF31460D
:10C320002846CDE901460097B34BB54AFFF796FF83
:10C330002846CDE9014600970321AF4BB14AFFF7EC
:10C340008DFF0097B04FDFF8A8932846CDE901464E
:10C350000421A94BAD4AFFF781FF2846009705212C
:10C36000CDE90144AA4BAB4AFFF778FF2846CDE957
:10C370000148CDF800900621A74BA84AFFF76EFFB1
:10C380000123DFF870A32846CDE90143CDF80090E2
:10C390000921A14BA24AFFF761FF2846CDF800A072
:10C3A0000A21CDE901449F4B9F4AFFF757FFCDF883
:10C3B00000A04FF00C0ADFF840B341462846CDE913
:10C3C0000144984B994AFFF749FF51462846CDE969
:10C3D000014A914B964ACDF800B0FFF73FFF28463F
:10C3E00000970F21CDE90144924B934AFFF736FFA6
:10C3F0002846CDE9014A1021874B904ACDF800B07C
:10C40000FFF72CFF2846CDE90148CDF80090132115
:10C41000814B8B4AFFF722FF284600971621CDE972
:10C420000144844B874AFFF719FF284600971721DC
:10C43000CDE90144764B844AFFF710FF2846009768
:10C440001821CDE90144724B804AFFF707FF804B6A
:10C450002846CDE90146009319216F4B7D4AFFF72D
:10C46000FDFE7D4B2846CDE9014600931A216A4B1B
:10C470007A4AFFF7F3FE7A4B2846CDE9014800934C
:10C480001B21654B774AFFF7E9FE774E2846CDE939
:10C490000148CDF800901E215F4B744AFFF7DEFE85
:10C4A000284600972121CDE90144594B704AFFF7F6
:10C4B000D5FE284600962221CDE901446D4B6E4AF7
:10C4C000FFF7CCFE284600962221CDE901446B4BB4
:10C4D0006B4AFFF7C3FE6B4BDFF820A22846DFF85C
:10C4E000209200932421CDE90144674B674AFFF76E
:10C4F000B5FEDFF8108228462521CDE90144644BC2
:10C50000644ACDF800A0FFF7A9FE634F2846262114
:10C51000CDE90144614B624ACDF80090FFF79EFEE1
:10C52000604E28462721CDE901445F4B5F4ACDF894
:10C530000080FFF793FE28462821CDE901445C4B9B
:10C540005C4A0097FFF78AFE28462921CDE901447D
:10C55000594B5A4A0096FFF781FE28462A21CDE919
:10C5600001444B4B564ACDF800A0FFF777FE284612
:10C570002B21CDE90144494B524ACDF80090FFF7F9
:10C580006DFE28462C21CDE90144474B4E4ACDF89B
:10C590000080FFF763FE28462D21CDE90144444B7E
:10C5A0004A4A0097FFF75AFE28462E21CDE901445A
:10C5B000414B474A0096FFF751FE464B28460093F1
:10C5C0002F21CDE90144444B444AFFF747FE444B39
:10C5D000284600933021CDE90144424B424AFFF7FF
:10C5E0003DFE424B284600938EE000BF6F9D071032
:10C5F0009B9D0710039E0710899D0710D99D07106A
:10C60000E19D0710799C0710239E0710809C07105E
:10C61000BC9C0710E59D0710B89D0710BE9D071034
:10C620006C9C0710959D0710FD9D0710989C0710A6
:10C63000B09D0710CF9C0710B49D0710E99D07100F
:10C64000ED9D0710F19D0710F59D0710919C0710B7
:10C65000D09D0710089E0710129E0710879C071098
:10C66000C79C0710C89D0710AA9D0710CC9D0710F6
:10C67000F99D07108F9D0710DD9D0710A49D0710E1
:10C680000D9E0710019E0710C29D0710739C071096
:10C690001D9E0710A69C0710139D0710499D0710AB
:10C6A000619D0710089D07100D9D07103D9D071007
:10C6B000F89C07102D9D0710E09C0710199D07108E
:10C6C000AE9C0710689D0710439D0710359D07100D
:10C6D000219D07105B9D07104F9D0710739D07104C
:10C6E0007D9D0710779D0710839D0710C29C071042
:10C6F000EF9C0710AD9D0710D89C07108D9C07106C
:10C70000559D0710299D07103121CDE90144084BA3
:10C71000084AFFF7A3FD084B322100932846CDE9D4
:10C720000144064B064AFFF799FD05B0BDE8F08FBE
:10C73000A09C0710E69C0710D59C0710B69C07101C
:10C74000FE9C07103F2910B50ED800EB4114D4F819
:10C75000A0304BB1186801F011FBD4F8A00001F033
:10C760000DFB0023C4F8A03010BD704710B504467F
:10C770001021FFF7C4FC204610BD000013B50024B3
:10C78000054B0360E1B201340190FFF7DBFF402C61
:10C790000198F7D102B010BD14F83F0210B504465D
:10C7A000FFF7ECFF20464FF43861FFF7A8FC204666
:10C7B00010BD70B50446D0F8D4090E4620B1BDE8CE
:10C7C000704003689B681847D4F8D8090028F6D150
:10C7D000D4F8DC0908BBD4F8E00958B304F6E81132
:10C7E00001F0B6FB94F9E409002803DB002180B2D4
:10C7F00002F08DF93146D4F8E00901F06FFC94F9AC
:10C80000E409002803DB012180B202F080F9D4F8AA
:10C81000E00901F083FB01250DE094F85C1A02F0B9
:10C8200001F8D4F8DC09314603689B689847012871
:10C83000054602D00025284670BD0146D4F8DC0923
:10C8400001F0F7FF0028C6D1F5E70EB403B503AB3E
:10C8500053F8042B0021019301F01BFD02B05DF899
:10C8600004EB03B07047000073B504462279084614
:10C87000A36832B1A3B90B4902B0BDE8704001F022
:10C88000CDBC094A267B094D0949647B012E18BF9E
:10C890002946CDE900140749FFF7D7FF02B070BD64
:10C8A000054AEFE74BF73F0242F73F0247F73F02E7
:10C8B00043F73F0261F73F023AF73F0270B5044683
:10C8C000D0F8D4090D4608B101F056FFD4F8DC6960
:10C8D000A6B1304601F0A0FF802D28BF1025E9B297
:10C8E000D4F8DC0984F85C1A01F09CFFD4F8DC0968
:10C8F00001F0A3FFB0FA80F0400970BDD4F8E00960
:10C90000A8B101F0CFFA012194F9E40984F8EC69A7
:10C910000028C4F8F059A4F8F41908DB80B202F03A
:10C92000E5F894F9E409012180B202F0F0F80A2058
:10C9300001F01CFD0120E0E700F52861C0F8741B40
:10C9400000F6F8210022C0F8781B002180F87C2B2B
:10C95000C0E91F22C0F8D429C0F8D829C0F8DC29C2
:10C96000C0F8E02980F8D02980F8702B428780F841
:10C970003C20C287A0F8402080F84220C1650166B3
:10C9800041668166C1660167416781678164416470
:10C99000FFF79CBC2DE9F04100250446764B14229C
:10C9A0000360456085608581857388460F30294620
:10C9B00002F0FDF914222946A4F8235084F82550EA
:10C9C00004F1260002F0F3F945F65803A4F87C3090
:10C9D00058234FF40062294684F87E3004F1900019
:10C9E00002F0E5F923464FF47A7104F50062A3F8EA
:10C9F0009C1020339342FAD1604A04F509631A600F
:10CA00000022002504F694031A600021142204F683
:10CA1000980002F0CCF95A4F1422002104F6AC0021
:10CA200002F0C5F904F60C163F22002104F50C6053
:10CA300002F0BDF90FCFC4F80059C4F80459C4F886
:10CA400008590FC697E8070086E8070029465422D0
:10CA500004F6281002F0ABF94A4B4B4EC4F82839C3
:10CA60004A4B2946C4F82C39494B3C22C4F830398A
:10CA7000484BC4F87469C4F83439474B04F67C1049
:10CA8000C4F83839454BC4F83C39454BC4F84039F3
:10CA9000444BC4F84439444BC4F84839434BC4F8B8
:10CAA0004C39434BC4F85039424BC4F85439424BCB
:10CAB000C4F85839414BC4F85C39414BC4F860396B
:10CAC000404BC4F86439404BC4F868393F4BC4F854
:10CAD0006C393F4BC4F8703902F069F93D4B3E4A5E
:10CAE000C4F87C393D4BC4F8E829C4F880393C4B84
:10CAF0003C4AC4F884393C4BC4F8F029C4F888395E
:10CB00003A4B0122C4F88C39394B2046C4F890398D
:10CB1000384BC4F8A869C4F89439374B84F8D15914
:10CB2000C4F89839354B84F8EC59C4F89C39344B27
:10CB3000A4F8F429C4F8A039324BA4F87E5AC4F8FA
:10CB4000A439314B84F8705BC4F8B839C4F8BC39E7
:10CB5000C4F8C039C4F8C439C4F8C839C4F8CC39E9
:10CB6000FF2384F8E43984F87D3AFFF7E5FE204698
:10CB7000C4F8DC89BDE8F08114F83F029A991940A5
:10CB80005CF63F027EF73F0236F73F0282F73F0234
:10CB900086F73F028AF73F028EF73F0292F73F0285
:10CBA00096F73F029AF73F029EF73F02A2F73F0235
:10CBB000A6F73F02AAF73F02AEF73F02B2F73F02E5
:10CBC000B6F73F02BAF73F02BEF73F02C2F73F0295
:10CBD000C6F73F02CAF73F0200F83F02CEF73F0216
:10CBE000D2F73F0240420F00D6F73F02DAF73F028A
:10CBF000DEF73F02E2F73F02E6F73F02EAF73F02C5
:10CC0000EEF73F02F2F73F020094357701F019BBCF
:10CC1000F0B5457EBDF81440022D69D0032D00F01B
:10CC20009B80012D6CD1D24305892A4412B2002A7F
:10CC30005DDBB0F90850954259DD0029BEBF5B1895
:10CC400000211BB2B0F90A00CD188542C4BF431AB7
:10CC50001BB2002B4BDDC1F3C400DFF824C102EB93
:10CC6000C01211F00701DBB20CEB02001AD0C1F1C7
:10CC70000805414EEDB2AB42775D3FBFFF26A5EB05
:10CC8000030E46FA0EF637401CF80260012C0CBF6A
:10CC90003E43BE43AB420CF8026028D308390B4434
:10CCA000DBB28030072B19D9012C4FF0FF3518BFAC
:10CCB00000251A46EDB200F18001083AD2B2072AE7
:10CCC00001F8805C01F18001F7D8A3F10802C2F3FA
:10CCD000C402013200EBC21003F007033BB1274A44
:10CCE000012CD25C03780CBF134393430370F0BD57
:10CCF000D24345892A44CD18018912B2491B09B291
:10CD0000002AF4DBB0F90A509542F0DD0029BEBFDD
:10CD10005B1800211BB2B0F90870CE18BE42C4BF28
:10CD20006B1A1BB2002BE2DD8025D01010FB051121
:10CD30001348012C014402F007004FF0010202FAEF
:10CD400000F2D2B20B440CD18B42D0D011F8010BBF
:10CD5000104301F8010CF7E7CD184189491B09B2CE
:10CD600065E7D243D2B28B42C1D011F8010B10401B
:10CD700001F8010CF7E700BF319E0710299E07104C
:10CD8000399E0710F0B5457EBDF81440022D36D00F
:10CD9000032D00F09D80012D39D1D5180289521B39
:10CDA00012B20029C0F29380B0F90A508D4240F3CC
:10CDB0008E80002ABEBF9B1800221BB2B0F90870FB
:10CDC000D618BE42C4BFAB1A1BB2002B7FDD802534
:10CDD000C81010FB05224648012C024401F0070050
:10CDE0004FF0010101FA00F1C9B2134475D19A4222
:10CDF0006DD012F8010B084302F8010CF7E7C943A4
:10CE000005892944D518428909B2521B12B200295A
:10CE10005DDBB0F908508D4259DD002ABEBF9B187A
:10CE200000221BB2B0F90A00D5188542C4BF831A8C
:10CE30001BB2002B4BDDC2F3C400DFF8B4C001EB22
:10CE4000C01112F00702DBB20CEB01001AD0C2F1E4
:10CE50000805284EEDB2AB42775D3FBFFF26A5EB3C
:10CE6000030E46FA0EF637401CF80160012C0CBF89
:10CE70003E43BE43AB420CF8016028D3083A13444A
:10CE8000DBB28030072B19D9012C4FF0FF3518BFCA
:10CE900000251A46EDB200F18001083AD2B2072A05
:10CEA00001F8805C01F18001F7D8A3F10802C2F318
:10CEB000C402013200EBC21003F007033BB10E4A7B
:10CEC000012CD25C03780CBF134393430370F0BD75
:10CED000C9434589294409B263E7C943C9B29A42A3
:10CEE000F5D012F8010B084002F8010CF7E700BF7B
:10CEF000399E0710319E0710299E071070470000C9
:10CF0000F8B50D1E064614461F462DDB00F04DFBFE
:10CF1000A84229DD002C27DB304600F049FBA04267
:10CF200022DD304600F03FFB02281ED0032825D02A
:10CF3000012804D1E24333892C461A4415B2224613
:10CF40008021002CB8BFE21DD21012FB0155012236
:10CF50000D4904F007044B5702FA04F464B29742F7
:10CF60000CBF2343A3434B55F8BDE4433189728979
:10CF700001394D1B14442DB224B2E0E77389013B03
:10CF80005B1B25461CB2DAE7399E071010B5044634
:10CF90002421FFF7B4F8204610BD000038B5044640
:10CFA0000D464022802100F02DFA064B20462360DA
:10CFB000FF2384F8213063774FF6FF7384F8205005
:10CFC000E38338BD2CF83F0213B50A4CD4E88F1F19
:10CFD00011F001010BD120460191FFF79FF8019953
:10CFE00028B1054800F054FF2046FFF79CF802489E
:10CFF00002B010BD80AE071084AE071007B590F8E0
:10D00000223043B10191FFF7DFFF019903B05DF8D2
:10D0100004EB01F063B80B460122817F407F03B02F
:10D020005DF804EB01F08CBD38B590F91D30044675
:10D0300001330D461DD090F92100012180B201F08D
:10D0400066FD94F91F00002180B201F060FD94F9A3
:10D050002100002180B201F05AFD29462046FFF749
:10D06000CDFF94F921000121BDE8384080B201F0E4
:10D070004EBD01F063FE94F91B1001F0D7FB01F0E7
:10D080005DFE036800219B68984701F057FE036826
:10D0900029469B68984701F051FEBDE8384001F0F1
:10D0A000CCBB38B590F91D30044601330D460177ED
:10D0B000C27600F0C98090F91F00012180B201F012
:10D0C00015FD94F92100012180B201F00FFD94F8C3
:10D0D0002230002B00F0A68094F92100012180B2BB
:10D0E00001F015FDFFF770FF012100F0EFFEFFF7E3
:10D0F0006BFF102100F0CCFFFFF766FF002100F06E
:10D10000F9FEFFF761FF00F0CDFE94F92000012148
:10D1100080B201F0EBFC94F92000012180B201F013
:10D12000F6FC012001F022F994F92000002180B2E0
:10D1300001F0EDFC0A2001F019F994F92000012119
:10D1400080B201F0E4FC2046AE21FFF76DFF2046DF
:10D15000D521FFF769FF20468021FFF765FF2046B4
:10D16000A821FFF761FF20463F21FFF75DFF204622
:10D17000D321FFF759FF20460021FFF755FF204636
:10D180004021FFF751FF8D212046FFF74DFF012D74
:10D190000CBF102114212046FFF746FF2046202116
:10D1A000FFF742FF20460021FFF73EFF2046A12166
:10D1B000FFF73AFF2046C821FFF736FF2046DA2165
:10D1C000FFF732FF20461221FFF72EFF8121204674
:10D1D000FFF72AFF012D0CBF9F21CF212046FFF72B
:10D1E00023FFD9212046FFF71FFF012D0CBF22216D
:10D1F000F1212046FFF718FF2046DB21FFF714FF3F
:10D2000020464021FFF710FF2046A421FFF70CFF26
:10D210002046A621FFF708FF2046BDE83840AF2191
:10D22000FFF702BF94F91D00012180B201F05EFCFE
:10D2300094F91E00012180B201F058FC94F82230CC
:10D24000002B3FF462AF47E701F078FD01F0E4FA0C
:10D250005BE72DE9F04F1F4685B0BDF93880A7EB9D
:10D26000010AA8EB0209B9F1000FB8BFC9F1000922
:10D27000BAF1000FB8BFCAF1000AD14583460C4687
:10D280001546BDF83C3004DD3A462C4647460D466F
:10D290009046BC4205DD2A464546904622463C461D
:10D2A00017463E1BB2B20092A8EB050282EAE27179
:10D2B000A1EBE271C6F3C03202FA86F64545B4BF6F
:10D2C00001224FF0FF32019176100292BC421CDC29
:10D2D000DBF80020D145D2F81080C7BF294622468E
:10D2E0002A46214603935846C047019A039BB61A23
:10D2F000B1B236B2002E05DA029A1544009A2DB268
:10D30000561836B2013424B2E0E705B0BDE8F08F1C
:10D310002DE9F347044616468A461D46BDF82C8083
:10D320000768BDF92890CDF80080FF69B8472368E9
:10D3300009F1FF32CDF80080324451462046DF69C2
:10D3400012B22B46B8472368CDF8008032465146CA
:10D3500020469F694B46B8476B1E03EB0A012368C2
:10D36000CDF828809D6932464B462046AC4609B22E
:10D3700002B0BDE8F047604737B5013BBDF8185033
:10D38000134404681BB2009301950B466469A047DF
:10D3900003B030BD37B5BDF818500468CDE900259D
:10D3A000013B0B4464691BB2A04703B030BD2DE9BB
:10D3B000F347054692460C46BDF92890BDF82C80EF
:10D3C000CE18B4420BDA2B68CDF8008021469F6955
:10D3D00052464B4628460134B84724B2F1E702B022
:10D3E000BDE8F08713B50191B0F90E100268009105
:10D3F000546A0022B0F90C301146A04702B010BDAB
:10D40000704700004281C2814FF0FF3230B5426167
:10D4100000240122044D4460056001818181046182
:10D420000283827630BD00BF60FD3F022DE9F04FE0
:10D430002DED028B8DB00491BDF86010074605916B
:10D44000BDF864109DF868500691B0F90C1004986E
:10D45000814252DDB7F90E1091424EDD062111FBDB
:10D460000504002C49DD02EBC504002C45DD002439
:10D4700003EB83030B9393B2079308339BB208919A
:10D480000993052C0FBF00232B4B0B9A1B1918BFB8
:10D490009B5C049A0393ABB20A9304FB05F3079ECB
:10D4A00013FA82F31BB208EE103AB04604EB020AFC
:10D4B0000FFA85F90FFA8AFA039BDB072FD5012DA6
:10D4C0003B681FD1D3F810B0059B5146384632B2A5
:10D4D000D847039B01365B0803930A9BB6B2984476
:10D4E000099B1FFA88F8B342E6D1089B0134013B3F
:10D4F00013F0FF0364B20893C3D10DB0BDEC028BEF
:10D50000BDE8F08F059ACDE9009218EE101AD3F815
:10D5100024B038464B460FFA88F2D847D9E7DDE900
:10D5200005239342D5D0012D3B6803D1D3F810B029
:10D53000069BCAE7069AE6E75CF83F0230B50A297F
:10D54000044685B007D1027E638A03EBC20363827F
:10D550000023238221E00D291FD0037E0293C38A7A
:10D560000193838A0093B0F912200B46B0F9101092
:10D57000FFF75CFF207E238A00EB400103EB4103B1
:10D58000A17E1BB20246238239B16FF00505B4F9C2
:10D590000C1005FB00118B42D6DC012005B030BD1C
:10D5A000018242827047407E7047B0F90C0070479C
:10D5B000B0F90E007047000009B504480068044B3C
:10D5C00003441B689B68029309BD0000689C071018
:10D5D0005000000009B504480068044B03441B6870
:10D5E000DB68029309BD0000689C07105000000032
:10D5F00009B504480068044B03441B689B68029308
:10D6000009BD0000689C07101400000009B504481B
:10D610000068044B03441B68DB68029309BD0000EB
:10D62000689C07101400000009B504480068044B0A
:10D6300003441B681B69029309BD0000689C071026
:10D640001400000009B504480068044B03441B683B
:10D650005B68029309BD0000689C07100000000091
:10D6600009B504480068044B03441B68DB68029357
:10D6700009BD0000689C07100000000009B50448BF
:10D680000068044B03441B685B69029309BD0000FA
:10D69000689C07100000000009B504480068044BAE
:10D6A00003441B68DB6D029309BD0000689C0710F2
:10D6B0000000000009B504480068044B03441B68DF
:10D6C0005B6C029309BD0000689C071030000000ED
:10D6D00009B504480068044B03441B685B69029366
:10D6E00009BD0000689C07104C00000009B5044803
:10D6F0000068044B03441B68DB68029309BD00000B
:10D70000689C07102400000009B504480068044B19
:10D7100003441B681B69029309BD0000689C071045
:10D720002400000009B504480068044B03441B684A
:10D730005B69029309BD0000689C0710240000008B
:10D7400009B504480068044B03441B689B690293B5
:10D7500009BD0000689C07102400000009B50448BA
:10D760000068044B03441B68DB69029309BD000099
:10D77000689C07102400000009B504480068044BA9
:10D7800003441B681B6A029309BD0000689C0710D4
:10D790002400000009B504480068044B03441B68DA
:10D7A0009B6A029309BD0000689C071024000000DA
:10D7B00009B504480068044B03441B68DB6A029304
:10D7C00009BD0000689C07102400000009B504484A
:10D7D0000068044B03441B681B6C029309BD0000E6
:10D7E000689C07102400000009B504480068044B39
:10D7F00003441B68DB68029309BD0000689C0710A6
:10D800001000000009B504480068044B03441B687D
:10D810009B69029309BD0000689C0710100000007E
:10D8200009B504480068044B03441B68DB69029394
:10D8300009BD0000689C07101000000009B50448ED
:10D840000068044B03441B681B6A029309BD000077
:10D85000689C07101000000009B504480068044BDC
:10D8600003441B685B6A029309BD0000689C0710B3
:10D870001000000009B504480068044B03441B680D
:10D880009B6A029309BD0000689C0710100000000D
:10D8900009B504480068044B03441B68DB6A029323
:10D8A00009BD0000689C07101000000009B504487D
:10D8B0000068044B03441B681B6B029309BD000006
:10D8C000689C07101000000009B504480068044B6C
:10D8D00003441B685B6B029309BD0000689C071042
:10D8E0001000000009B504480068044B03441B689D
:10D8F0001B6C029309BD0000689C0710100000001B
:10D9000009B504480068044B03441B681B68029374
:10D9100009BD0000689C07101800000009B5044804
:10D920000068044B03441B689B68029309BD000018
:10D93000689C07101800000009B504480068044BF3
:10D9400003441B68DB68029309BD0000689C071054
:10D950001800000009B504480068044B03441B6824
:10D960001B69029309BD0000689C071018000000A5
:10D9700009B504480068044B03441B685B690293C3
:10D9800009BD0000689C07101800000009B5044894
:10D990000068044B03441B68DB69029309BD000067
:10D9A000689C07101800000009B504480068044B83
:10D9B00003441B681B6A029309BD0000689C0710A2
:10D9C0001800000009B504480068044B03441B68B4
:10D9D0005B6A029309BD0000689C071018000000F4
:10D9E00009B504480068044B03441B68DB6B0293D1
:10D9F00009BD0000689C07101800000009B5044824
:10DA00000068044B03441B681B6C029309BD0000B3
:10DA1000689C07101800000009B504480068044B12
:10DA200003441B685B6C029309BD0000689C0710EF
:10DA30001800000009B504480068044B03441B6843
:10DA40001B68029309BD0000689C071034000000A9
:10DA500009B504480068044B03441B685B680293E3
:10DA600009BD0000689C07103400000009B5044897
:10DA70000068044B03441B681B69029309BD000046
:10DA8000689C07103400000009B504480068044B86
:10DA900003441B685B69029309BD0000689C071082
:10DAA0003400000009B504480068044B03441B68B7
:10DAB0009B69029309BD0000689C071034000000B8
:10DAC00009B504480068044B03441B68DB690293F2
:10DAD00009BD0000689C07103400000009B5044827
:10DAE0000068044B03441B681B6A029309BD0000D5
:10DAF000689C07103400000009B504480068044B16
:10DB000003441B689B6A029309BD0000689C0710D0
:10DB10003400000009B504480068044B03441B6846
:10DB20005B6B029309BD0000689C07104800000071
:10DB300009B504480068044B03441B685B68029302
:10DB400009BD0000689C07100800000009B50448E2
:10DB50000068044B03441B685B69029309BD000025
:10DB6000689C07100800000009B504480068044BD1
:10DB700003441B68D3F88830029309BD689C0710E2
:10DB80000800000009B504480068044B03441B6802
:10DB9000D3F89430029309BD689C07100800000078
:10DBA00009B504480068044B03441B685B68029392
:10DBB00009BD0000689C07102800000009B5044852
:10DBC0000068044B03441B689B68029309BD000076
:10DBD000689C07102800000009B504480068044B41
:10DBE00003441B68DB68029309BD0000689C0710B2
:10DBF0002800000009B504480068044B03441B6872
:10DC00001B69029309BD0000689C071028000000F2
:10DC100009B504480068044B03441B685B69029320
:10DC200009BD0000689C07102800000009B50448E1
:10DC30000068044B03441B689B69029309BD000004
:10DC4000689C07102800000009B504480068044BD0
:10DC500003441B68DB69029309BD0000689C071040
:10DC60002800000009B504480068044B03441B6801
:10DC70001B6A029309BD0000689C07102800000081
:10DC800009B504480068044B03441B681B6B0293EE
:10DC900009BD0000689C07102800000009B5044871
:10DCA0000068044B03441B685B6B029309BD0000D2
:10DCB000689C07102800000009B504480068044B60
:10DCC00003441B681B6C029309BD0000689C07108D
:10DCD0002800000009B504480068044B03441B6891
:10DCE0005B6C029309BD0000689C071028000000CF
:10DCF00009B504480068044B03441B685B6D02933C
:10DD000009BD0000689C07102800000009B5044800
:10DD10000068044B03441B689B6D029309BD00001F
:10DD2000689C07102800000009B504480068044BEF
:10DD300003441B689B68029309BD0000689C0710A0
:10DD40002C00000009B504480068044B03441B681C
:10DD5000DB6B029309BD0000689C07102C000000DB
:10DD600009B504480068044B03441B681B68029310
:10DD700009BD0000689C07100400000009B50448B4
:10DD80000068044B03441B685B68029309BD0000F4
:10DD9000689C07100400000009B504480068044BA3
:10DDA00003441B689B68029309BD0000689C071030
:10DDB0000400000009B504480068044B03441B68D4
:10DDC0005B6A029309BD0000689C07100400000014
:10DDD00009B504480068044B03441B681B6C02939C
:10DDE00009BD0000689C07100400000009B5044844
:10DDF0000068044B03441B685B6C029309BD000080
:10DE0000689C071004000000002240681146FFF7DC
:10DE100029BF002240681146FFF740BF002240683A
:10DE2000FFF72EBF0022406881F00101FFF70CBF11
:10DE3000002340681A461946FFF7F8BE00234068E1
:10DE40001A461946FFF7E4BE002240681146FFF764
:10DE5000D1BE002240681146FFF7B0BE0022022169
:10DE60004068FFF7B9BE002340681A46FFF798BE26
:10DE70000322024B5A60024A1A6070478CAE0710A8
:10DE800098FD3F020021FFF7C7BD0021FFF7B6BD97
:10DE900010B5044608462170FFF778FD00232046A0
:10DEA000636010BD13B504460078FFF7EEFF58B964
:10DEB00020784FF6FF710190FFF722FD019802B024
:10DEC000BDE81040FFF7DEBF02B010BD13B5044639
:10DED00000780191FFF7D9FF019948B920780190A6
:10DEE000FFF71CFD019802B0BDE81040FFF7CABF64
:10DEF00002B010BD13B5044600780191FFF7C5FFCD
:10DF0000019948B920780190FFF716FD019802B0F9
:10DF1000BDE81040FFF7B6BF02B010BD0078FFF7B4
:10DF2000B1BF000030B50024400818601868E5B2A1
:10DF3000884206D90134082C02D040081860F5E761
:10DF40000725024B5B5D137030BD00BFD4FD3F025F
:10DF50002DE9F04306468FB000780C46FFF795FF99
:10DF600000281BDB1422002109A8357800F01FFFD0
:10DF70000B230022284609A9ADF82430FFF722FD23
:10DF80009DF82D3013B19DF82C5055B10027012577
:10DF9000B946B84623795DB1C3B100200FB0BDE8E2
:10DFA000F083DDF830809DF834909DF83570F1E70E
:10DFB000002B35D1A368434508D18DF820908DF80A
:10DFC0002170BDF82020A3899A42E6D00023A168E1
:10DFD0008DF80F300A9804AB0DF10F02FFF7A2FF86
:10DFE000217985B989B9A36843450ED38DF820906E
:10DFF0008DF82170BDF82020A3899A4205D1049B99
:10E00000434502D1C9E70029F9D100230193637B7D
:10E010009DF80F200093237B3078FFF7E1FCBCE7ED
:10E020002B462A460121CDE90055F5E700232DE9CD
:10E03000F041044688B000780E4617460293FFF779
:10E0400024FF054600BB0146142203A894F8008073
:10E0500000F0ADFE0B232A46404603A9ADF80C3074
:10E06000FFF7B0FC07FB06F1049802AB0DF10702C5
:10E070008DF80750FFF756FF20789DF80710FFF73F
:10E0800069FC2078FFF7FEFE029808B0BDE8F08139
:10E0900038B5044600780D46FFF7F7FE0346D0B9C1
:10E0A000616899B10C4A12F8010B854202D0013324
:10E0B000082BF8D10133DBB201222046D940FFF70B
:10E0C000B5FF2078BDE83840FFF7DCBE2946207850
:10E0D000FFF740FCF5E738BDD4FD3F0208B50078F6
:10E0E000FFF746FCC0B208BD02220020044B1A60B4
:10E0F000044B054AC3E900009A60FFF719BD00BF51
:10E10000A0AE071094AE07100000FFFF10B5044644
:10E11000006808B1FFF732FE0023C4E90133236031
:10E1200010BD38B504460D4600680131FFF734FED6
:10E1300010B1C4E90005012038BD10B503680446DC
:10E1400023B143688B4201D3012010BD2046FFF765
:10E15000E8FF0028F9D0A368002BF5D122681370DE
:10E16000F2E737B50D46114601920446FFF7E5FF89
:10E17000019A28B92046FFF7C9FF204603B030BDF9
:10E180002946A260206800F005FE00212268A368ED
:10E19000D154F2E7002313B50446C0E9003383608D
:10E1A000037341B108460191FDF782FF01990246D0
:10E1B0002046FFF7D6FF204602B010BD00230248DC
:10E1C0000360FFF777BA00BFA4AE0710F8B50646A4
:10E1D0000D4600248F18BD420CD0336830469B6832
:10E1E00015F8011B9847031E01DB1C44F3E7002CC4
:10E1F00008BF1C462046F8BD13B50446084659B171
:10E200000191FDF755FF0246204623680199DB681E
:10E2100002B0BDE81040184702B010BD08B5FFF7C6
:10E22000EBFF08BD03689B68184738B50D2105460C
:10E23000FFF7F8FF0A2104462846FFF7F3FF2044C2
:10E2400038BD38B50546FFF7D7FF04462846FFF727
:10E25000ECFF204438BD0023012A98BF0A2230B5C4
:10E260008BB08DF8243009AC0D46B1FBF2F101FB07
:10E27000125303F0FF03092B94BF30333733DBB263
:10E28000AA4204F8013DEFD92146FFF7B5FF0BB0D4
:10E2900030BD2DE9F04186B000AF05460E46381D71
:10E2A000142114463B60FFF785FD13280ED828463D
:10E2B000391DFFF7A1FF04461EB12846FFF7B5FF41
:10E2C000044420461837BD46BDE8F08100F108033C
:10E2D00023F00703E846ADEB030D2246411C3B68E3
:10E2E0006846FFF767FD69462846FFF785FF044645
:10E2F000C546E1E710B50446FFF7C0F9E0602368C2
:10E3000020465B699847002808DAFFF7B7F9E36809
:10E31000C01AA3689842F2D34FF0FF3010BD2DE928
:10E32000F04107460C460D468E18B542A5EB040891
:10E3300007D03846FFF7DEFF031E02DB05F8013B7E
:10E34000F3E74046BDE8F081014B024A1A6070478E
:10E35000A8AE0710DCFD3F02024B1A68024B1A60A0
:10E36000704700BF3CA20710ACAE07100021FFF7BA
:10E37000EDBB00000022014B9A607047B0AE071061
:10E38000014B1860704700BF40A2071008B50F4B43
:10E3900043B100F077F903681B699847002801DD55
:10E3A00000E000BF0A4B43B100F01CFC03681B698E
:10E3B0009847002801DD00E000BF064B0BB100F0DC
:10E3C00057FC054B0BB100F089FC08BD00000000B4
:10E3D00000000000000000000000000008B5FFF78A
:10E3E000D5FFFFF74BF9014B186008BD4CAF071084
:10E3F0000548064A08B5121A054900F0CBFC054B42
:10E40000054A1A6008BD00BF00B4071004B4071025
:10E41000C8FE5F0800B407101E1C279A002307B52A
:10E420001A466FF077010093FFF7ACFB03B05DF87D
:10E4300004FB000007B543880A2B08D0502B0BD1F2
:10E44000094B1B684BB103B05DF804EB1847FFF7AD
:10E45000E5FF03B05DF804FB00231A466FF0770177
:10E460000093FFF78FFBF4E7C4AE0710002110B54F
:10E470001148FFF7BBFC114B1A68114B9A420CBFB5
:10E48000012200220F4B1A7001D0FFF7B1FFFFF7F6
:10E49000D9F8044600F094FC0B4B13B1204600E081
:10E4A00000BF00210848FFF74DFCBDE810400021E7
:10E4B0000648FFF759BB00BFF1EA3F0200B407105E
:10E4C0001E1C279AC0AE071000000000A5EB3F02FB
:10E4D000704710B504461821FDF711FE204610BD07
:10E4E000F0B5037D0E46062B4FF000048DB000F111
:10E4F000040712D000F1080515F8011D0A22304664
:10E50000FFF7A9FEAF42044419D0002CF4D02E210D
:10E510003046FFF787FE0444EEE72F236A4639466C
:10E520000A208DF80040FFF7D3F86846FDF7C0FDDC
:10E530003368024669463046DB6898470446204601
:10E540000DB0F0BD10B50446044B1122002140F877
:10E55000043B00F02CFC204610BD00BF04FE3F022F
:10E560000346074A10B543F8042B01F1100251F895
:10E57000044B914243F8044BF9D10A781A7010BD4C
:10E5800004FE3F0210B59DF8084044EA032343EA25
:10E590000242042342EA01614160037510BD00009C
:10E5A00007B5064B0360CB7800938B784A780978DF
:10E5B000FFF7E8FF03B05DF804FB00BF04FE3F0275
:10E5C000417470477047704708B50021007CFFF721
:10E5D00069FA40EAE07008BD08B50121007CFFF748
:10E5E00061FA40EAE07008BD08B5007CFFF74CFA1C
:10E5F00020EAE07008BD08B5007CFFF737FA20EA92
:10E60000E07008BD13B50446007C0191FFF73CFAA9
:10E610000028019901DC607C20B1207CFFF750FAD2
:10E6200020EAE07002B010BD007CFFF757BA10B5C9
:10E6300004461421FDF763FD204610BD10B54FF4CC
:10E640007A73044608460021C4E90113044B207480
:10E650002360012311466374FFF7ECF9204610BDD7
:10E6600018FE3F020022007CFFF7F2B9007CFFF7A2
:10E6700043BA10B504461422002100F098FB20464E
:10E6800010BD000010B588B003A8FFF7F2FF0C4CD6
:10E69000D4E88F1F11F001010FD120460191FDF741
:10E6A0003DFD019948B103AA0648FFF7C7FF204680
:10E6B000FDF739FD044800F067FB024808B010BDC3
:10E6C000C8AE0710CCAE071035ED3F02704741745D
:10E6D000704708B5007CFFF75DF820EAE07008BDE0
:10E6E00008B5007CFFF710F820EAE07008BD08B517
:10E6F000007CFFF725F840EAE07008BD08B5007C13
:10E70000FFF710F840EAE07008BD007CFFF726B87C
:10E7100037B5457C04462DB1207C03B0BDE83040C0
:10E72000FEF7E4BF007C0191FFF734F8002801995F
:10E73000F2DC284603B030BD10B504461421FDF7C5
:10E74000DEFC204610BD000010B54FF47A7304467D
:10E75000084611460022C4E90123044B20742360BB
:10E7600001236374FFF732F8204610BD4CFE3F02D0
:10E770000023007CFFF71CB80022FFF7F9BF007CE4
:10E78000FEF7FABF7047F8B5064615460C468F18D7
:10E79000BC4206D0336830469B6814F8011B98478A
:10E7A000F6E72846F8BD0022007CFFF747B80021B5
:10E7B000007CFFF751B80021007CFFF75BB8002117
:10E7C000007CFFF765B80021007CFFF76FB810B53B
:10E7D00004461421FDF793FC204610BD38B50446CD
:10E7E00015464FF47A730022C4E90123094B084609
:10E7F000217423602946FFF775F8BF3008D16B6993
:10E80000DB0705D56868FFF7B9FAE868FFF7B6FADD
:10E81000204638BD80FE3F020023007C1A46194680
:10E82000FEF7E2BF0022007CFEF7ECBFC9B2FFF7A3
:10E83000F9BF0022007CFEF7F3BF0121FFF7F9BF0B
:10E84000FF210022044B0120C3E9001264211A6158
:10E85000C3E90201704700BFE0AE07100022406824
:10E860001146FFF7C7B9002240681146FFF7FAB911
:10E87000002240681146FFF711BA00224068FFF7F6
:10E88000FFB90022406881F00101FFF7DDB90023E4
:10E8900040681A461946FFF7C9B9002340681A466E
:10E8A0001946FFF7B5B9002240681146FFF786B94F
:10E8B000002202214068FFF78FB9002340681A4602
:10E8C000FFF76EB90422024B5A60024A1A60704781
:10E8D000F4AE0710ACFE3F02002340681A46FFF773
:10E8E0005FB9002202214068FFF776B90022406834
:10E8F0001146FFF763B9002240681146FFF77AB965
:10E90000002340681A461946FFF782B90023406881
:10E910001A461946FFF78AB900214068FFF7CCB9BB
:10E9200000214068FFF7D6B90022406881F001015C
:10E93000FFF78AB900224068FFF7A2B900224068B9
:10E940001146FFF7ABB9002240681146FFF78AB9BC
:10E9500000214068FFF7DAB92DE9F04395B014467D
:10E960000D460746FFF7EEFD00211C220DA8009181
:10E9700000F01DFA402320460C9300216B460CAAA0
:10E98000FEF728FE044600284BD1024601216868A4
:10E99000FFF730F90221804622466868FFF72AF91E
:10E9A00021468146009E002E3BD0002939D1736854
:10E9B000022B03D00A2B11D0F669F4E7B8F1000F4F
:10E9C000FAD0716906A804313C1D07ADFFF7E8FDD8
:10E9D0000FCD0FC42B6841462370EDE7B9F1000F4E
:10E9E000EAD0102201A8746900F0E1F9062301AD14
:10E9F0008DF8143004F1080318342A461868596851
:10EA0000083303C2A3421546F7D101A906A83C1D4D
:10EA100007ADFFF7A5FD0FCD0FC42B684946237046
:10EA2000CAE70098FEF7C8FD384615B0BDE8F08388
:10EA3000033802289ABF024B53F820000148704760
:10EA4000E8FE3F02FCAE071008B500224068FFF761
:10EA50004FF9BDE80840FFF7EBBF0000024B034A47
:10EA60001A6000225A607047FCAE0710FCFE3F029D
:10EA70001B2837B5044602D9002003B030BDA0F1F1
:10EA80000F03022B0BD9012821D800F057F90021E0
:10EA9000007CFEF719FF80F00100C0B2EDE7114DD8
:10EAA000D5E88F1F11F001010BD128460191FDF728
:10EAB00035FB019928B10C48FFF7EAF92846FDF724
:10EAC00032FB094B1878FEF76FFF0028D4D1083CC1
:10EAD000012C05D800F086F8007CFEF74DFEDAE741
:10EAE0000120CAE780AE071084AE07101B2838B596
:10EAF00004460D460AD8FF2908D0FFF7B9FF28B110
:10EB000029462046BDE83840FEF772BD38BD38B50D
:10EB100004460D46FEF77AFDFF2810D0062804D8DB
:10EB20004D2323FA00F0C30709D42046FFF7A0FFC6
:10EB300028B129462046BDE83840FEF775BD38BDEE
:10EB40002DE9F04190461F46072406460D46C4F1C4
:10EB50000701B8F1000F12D147FA01F1304601F078
:10EB60000101FFF7D4FF01212846FFF7D0FF002164
:10EB70002846FFF7CCFF013CE9D2BDE8F08147FA17
:10EB800004F1EBE77047000038B5142504462A4627
:10EB9000002100F00CF925804025074928462581F1
:10EBA000258200F0EFF804496060284600F0EAF89A
:10EBB000E060204638BD00BF38FF3F027047704715
:10EBC00010B50446FFF7E0FF204610BD10B504461F
:10EBD000FFF7DAFF204610BD10B50446FFF7D4FF5B
:10EBE000204610BD30B50E4D87B0D5E88F1F11F00F
:10EBF000010411D12846FDF791FA68B101A8FFF789
:10EC0000DFFF214601AA0748FFF79EFD2846FDF7D2
:10EC10008AFA054800F0B8F8024807B030BD00BFD6
:10EC200004AF071010AF0710F5F23F0210B50D4CFE
:10EC300086B0D4E88F3FDB0711D42046FDF76EFA8B
:10EC400068B101A8FFF7C2FF012101AA0648FFF73A
:10EC50007BFD2046FDF767FA044800F095F802486E
:10EC600006B010BD08AF071024AF07102FF33F0206
:10EC700010B5FFF7DBFF074B044653B1FFF77FFDED
:10EC800038B1236820461B699847002801DD00E061
:10EC900000BF10BD0000000010B50D4C86B0D4E8D8
:10ECA0008F3FDB0711D42046FDF738FA68B101A881
:10ECB000FFF792FF022101AA0648FFF745FD204613
:10ECC000FDF731FA044800F05FF8024806B010BDC5
:10ECD0000CAF071038AF07102DF33F0210B5FFF748
:10ECE000DBFF074B044653B1FFF749FD38B12368FA
:10ECF00020461B699847002801DD00E000BF10BDD9
:10ED0000000000007047000038B50A4B044603605D
:10ED1000012309494361202000F034F82025606078
:10ED200005492846A56000F02DF8C4E903052046F2
:10ED300038BD00BF1800010038FF3F0230B50E4D4E
:10ED400087B0D5E88F1F11F0010411D12846FDF7D7
:10ED5000E5F968B16846FFF7D7FF6A4621460748DC
:10ED6000FFF73CFD2846FDF7DEF9054800F00CF8FA
:10ED7000024807B030BD00BF50AF071054AF0710B6
:10ED800075F43F02FDF7B9B9002301461A4618464B
:10ED900000F044B80A44431E914200D1704710B5B8
:10EDA00011F8014B914203F8014FF9D110BD024413
:10EDB0000346934200D1704703F8011BF9E70000B6
:10EDC00038B5104B04461D68AB6BB3B91820FEF77D
:10EDD000C7FF0246A86320B90B4B42210B48FEF740
:10EDE000F7FF0B490B4BC0E900130B4B002183606D
:10EDF0000B2383810120C2E90401AB6B00221C615B
:10EE00005A6138BD40A2071039FF3F0250FF3F0250
:10EE10000E33CDAB34126DE6ECDE05002DE9F84380
:10EE2000DFF8BC8006461F460D46D8F80000914624
:10EE300000F058F8264B1C6834B9264C1C60264B51
:10EE400013B11B68C4F8883063681F2B07DDD8F83E
:10EE5000000000F049F84FF0FF30BDE8F8835EB3E2
:10EE6000D4F8880088B91D4B23B9D8F8000000F009
:10EE70003AF8F0E74FF48470FEF772FF0028F4D000
:10EE80000023C0E94033C4F8880063680122022EE1
:10EE900040F8239002FA03F200EB8301D0F800312E
:10EEA00043EA0203C0F80031C1F8807002BFD0F815
:10EEB00004311343C0F804316368D8F800005A1CC9
:10EEC0000233626044F8235000F00EF80020C4E7DB
:10EED000F4AF071068AF071000000000D1E43F0254
:10EEE000A4A20710704770477047000027F73F0241
:10EEF0002AF73F022DF73F0230F73F0233F73F0278
:10EF00002EF73F0236F73F0231C83F0259C83F0291
:10EF10005DC83F020000000043616C6C206F6E20F2
:10EF200070757265207669727475616C0024504D3D
:10EF3000544B3331342C302C312C302C312C302CA0
:10EF4000302C302C302C302C302C302C302C302CE1
:10EF5000302C302C302C302C302C302A32380024FD
:10EF6000504D544B3232302C313030302A31460043
:10EF7000245047434D442C33332C312A364300244C
:10EF8000504D544B3630352A333100414134313005
:10EF9000343133323936384241323232343239390F
:10EFA000303739303231353934414200496F5453AA
:10EFB000747564656E7400494900574900475000F4
:10EFC000504700474E005A5A5A0064656661756C96
:10EFD0007420004D5342004C5342003C535049535F
:10EFE000657474696E67732064656661756C743EE0
:10EFF000003C53504953657474696E6773202573E0
:10F000002575202573204D4F444525753E00474703
:10F010004100474C4C0047534100524D430044428D
:10F02000540048444D00484454004D4441004D5460
:10F0300057004D575600524D4200544F50005458FF
:10F04000540056485700564C5700565057005657D4
:10F050005200574356005854450041504200445016
:10F06000540047535600484447004D574400524F00
:10F07000540052504D0052534100564452005654D1
:10F0800047005A444100000000000000000000005A
:10F09000D9CF3F02DBCE3F02DDCE3F0200000000B1
:10F0A00000000000EDCE3F020DCF3F0223CF3F0214
:10F0B0003DE93F0200000000000000006DD63F0265
:10F0C000FDD63F02ADDC3F023DE93F0271D63F0273
:10F0D000C3D93F02F5D43F0281D33F0281DA3F0218
:10F0E0001FDB3F0255DB3F0271DB3F0200000000E7
:10F0F000003E5B4F5B3E3E6B4F6B3E1C3E7C3E1CBE
:10F10000183C7E3C181C577D571C1C5E7F5E1C0003
:10F11000183C1800FFE7C3E7FF0018241800FFE7BA
:10F12000DBE7FF30483A060E2629792926407F057D
:10F130000507407F05253F5A3CE73C5A7F3E1C1C93
:10F1400008081C1C3E7F14227F22145F5F005F5F53
:10F1500006097F017F006689956A6060606060943F
:10F16000A2FFA29408047E040810207E2010080844
:10F170002A1C08081C2A08081E101010100C1E0C4F
:10F180001E0C30383E3830060E3E0E0600000000E1
:10F190000000005F00000007000700147F147F14C8
:10F1A000242A7F2A1223130864623649562050000D
:10F1B00008070300001C2241000041221C002A1CF9
:10F1C0007F1C2A08083E08080080703000080808E4
:10F1D0000808000060600020100804023E51494504
:10F1E0003E00427F400072494949462141494D3322
:10F1F0001814127F1027454545393C4A4949314189
:10F20000211109073649494936464949291E000056
:10F2100014000000403400000008142241141414AB
:10F220001414004122140802015909063E415D5997
:10F230004E7C1211127C7F494949363E41414122A0
:10F240007F4141413E7F494949417F090909013ECA
:10F25000414151737F0808087F00417F41002040F1
:10F26000413F017F081422417F404040407F021C03
:10F27000027F7F0408107F3E4141413E7F0909091A
:10F28000063E4151215E7F091929462649494932E6
:10F2900003017F01033F4040403F1F2040201F3FAC
:10F2A0004038403F63140814630304780403615931
:10F2B000494D43007F414141020408102000414173
:10F2C000417F04020102044040404040000307081F
:10F2D0000020545478407F2844443838444444281B
:10F2E000384444287F385454541800087E090218C2
:10F2F000A4A49C787F0804047800447D400020404A
:10F30000403D007F1028440000417F40007C04788D
:10F3100004787C080404783844444438FC182424D5
:10F320001818242418FC7C08040408485454542455
:10F3300004043F44243C4040207C1C2040201C3CD2
:10F340004030403C44281028444C9090907C4464C9
:10F35000544C44000836410000007700000041365C
:10F36000080002010204023C2623263C1EA1A161E2
:10F37000123A4040207A3854545559215555794114
:10F380002154547841215554784020545579400CEB
:10F390001E527212395555555939545454593955CC
:10F3A0005454580000457C410002457D420001450F
:10F3B0007C40F0292429F0F0282528F07C5455457C
:10F3C000002054547C547C0A097F4932494949320F
:10F3D0003248484832324A4848303A4141217A3A24
:10F3E00042402078009DA0A07D39444444393D40EE
:10F3F00040403D3C24FF2424487E4943662B2FFC9B
:10F400002F2BFF0929F620C0887E09032054547948
:10F41000410000447D413048484A32384040227A19
:10F42000007A0A0A727D0D19317D2629292F282696
:10F430002929292630484D4020380808080808089E
:10F440000808382F10C8ACBA2F102834FA00007BF7
:10F45000000008142A142222142A1408AA005500B5
:10F46000AAAA55AA55AA000000FF00101010FF001C
:10F47000141414FF001010FF00FF1010F010F0140F
:10F480001414FC001414F700FF0000FF00FF141414
:10F49000F404FC141417101F10101F101F14141460
:10F4A0001F00101010F0000000001F101010101F9F
:10F4B00010101010F010000000FF101010101010AD
:10F4C000101010FF10000000FF140000FF00FF00EC
:10F4D000001F10170000FC04F41414171017141464
:10F4E000F404F40000FF00F714141414141414F7B7
:10F4F00000F7141414171410101F101F141414F410
:10F50000141010F010F000001F101F0000001F1456
:10F51000000000FC140000F010F01010FF10FF14A9
:10F520001414FF141010101F00000000F010FFFF53
:10F53000FFFFFFF0F0F0F0F0FFFFFF000000000021
:10F54000FFFF0F0F0F0F0F38444438447C2A2A3E28
:10F55000147E02020606027E027E02635549416362
:10F560003844443C04407E201E2006027E0202995C
:10F57000A5E7A5991C2A492A1C4C7201724C304AF5
:10F580004D4D303048784830BC625A463D3E49497E
:10F5900049007E0101017E2A2A2A2A2A44445F4426
:10F5A0004440514A444040444A51400000FF010356
:10F5B000E080FF000008086B6B0836123624360620
:10F5C0000F090F060000181800000010100030404E
:10F5D000FF0101001F01011E00191D1712003C3C14
:10F5E0003C3C0000000000000000000000000000A3
:10F5F0000000000000000000ADDC3F023DE93F02DA
:10F6000075C83F02C3D93F02E9DA3F0205DB3F027A
:10F6100081DA3F021FDB3F0255DB3F0271DB3F0215
:10F620000000000000000000D7E53F02CDE53F02EA
:10F63000C3E53F02B9E53F02ADE53F02A1E53F0268
:10F6400089F03F0291F03F0295E53F028DE53F02D0
:10F6500083E53F0279E53F02B9F13F02C1F03F0285
:10F66000C9F03F020008101820283038617070007F
:10F6700025592D256D2D25645425483A254D3A25CB
:10F6800053257A0061736374696D650000000000A2
:10F690000000000051EC3F0241EC3F0243EC3F020E
:10F6A000000000000000000037ED3F029FED3F0228
:10F6B00075ED3F023DE93F0267ED3F0239ED3F0244
:10F6C00049ED3F0299ED3F028FEA3F0259ED3F02BB
:10F6D00031ED3F0200000000000000003DEE3F025F
:10F6E000A9EE3F0281EE3F023DE93F0251EE3F02AB
:10F6F0006DEE3F025FEE3F027BEE3F028FEA3F027C
:10F700003FEE3F0243EE3F02000000000000000019
:10F71000F5EE3F023FEF3F0217EF3F02F7EE3F02E9
:10F720001FEF3F0227EF3F022FEF3F0237EF3F026D
:10F730008FEA3F0200000000000000002BF03F02B3
:10F7400021F03F0217F03F02CDEF3F020BF03F02E6
:10F75000FFEF3F0289F03F0291F03F02F3EF3F02DB
:10F76000EBEF3F02E1EF3F02D7EF3F02B9F13F027B
:10F77000C1F03F02C9F03F028CAE0710F4AE071093
:10F78000FCAE0710000000000000000049F03F023E
:10F7900053F03F025DF03F0267F03F0271F03F021D
:10F7A0007DF03F0289F03F0291F03F0299F03F0265
:10F7B000A5F03F02ADF03F02B7F03F02B9F13F02C2
:10F7C000C1F03F02C9F03F02005245454E54206D42
:10F7D000616C6C6F63207375636365656465640059
:10F7E0002F6D6E742F776F726B73706163652F77F7
:10F7F0006F726B73706163652F4743432D31302DFA
:10F80000706970656C696E652F6A656E6B696E7381
:10F810002D4743432D31302D706970656C696E65DD
:10F820002D34385F32303230313132345F3136305E
:10F83000363138303634312F7372632F6E65776C02
:10F8400069622F6E65776C69622F6C6962632F73D2
:10F8500074646C69622F72616E642E630000000034
:10F8600065C93F02E1E53F0259E83F022DE93F0249
:10F87000B9EA3F02C9EA3F02E5EA3F02B1EF3F02BF
:08F8800035F03F02CDF13F021B
:10F8880000000002575020434F47004465707468D9
:10F89800005750204C6174005750204C6F6E005038
:10F8A800697463680052504D00575020564D470008
:10F8B800575020446973740025362E3066004D6F0A
:10F8C800746F722031004D6F746F722032002536CC
:10F8D8002E30660025362E32660025205248004418
:10F8E8006567204D61670025362E3166005061003E
:10F8F800446567726565730025362E316600487564
:10F908006D6964697479004465672054727565008F
:10F9180025362E3266004261726F6D65746572001D
:10F92800416D70730025362E306600566F6C747307
:10F93800004D6F746F722031004D6F746F722032FA
:10F94800006B5061004D6F746F722031004D6F7401
:10F958006F722032004F696C2031004F696C203281
:10F968000025362E30660025362E31660044656740
:10F9780020430044656720430054656D70203100C2
:10F9880054656D702032004E554C00416972002557
:10F99800362E3166004465672043005761746572EE
:10F9A8000025392E34660025362E30660025362E81
:10F9B8003266004444442E646464640025362E3262
:10F9C80066004E4D004E4D004157410041575300CF
:10F9D80025362E306600434F470025362E31660007
:10F9E80048444700484447004465672053746264AC
:10F9F800004C6174004C6F67004C6F6E00534F47AA
:10FA080000545741005457440054575300564D472B
:10FA18000056545700585445006D0048444F500054
:10FA28004865656C00547269700044656720426FD0
:10FA3800772055700025362E3066006B6E6F747314
:10FA480000000103070F1F3F7F0080C0E0F0F8FCB3
:10FA5800FE000000000000000000000000000000A0
:10FA6800000000000000000000000000000000008E
:10FA7800000000000000000000000000000000007E
:10FA8800000000000000000000000000000000006E
:10FA980080808000000000000000000000000000DE
:10FAA80000008080C0C000000000000000000000CE
:10FAB800000000000000000000000000000000003E
:10FAC800000000000000000000000000000000002E
:10FAD800000000000000000000000000000000001E
:10FAE800000000000080C0E0F0F8FCF8E000000032
:10FAF80000000000000000000000000000008080FE
:10FB080080808000808000000000808080808000ED
:10FB1800FFFFFF00000000808080800000808000E0
:10FB28000080FFFF808000808000808080800080CF
:10FB3800800000000000808000008C8E840000801F
:10FB4800F8F8F88000000000000000000000000045
:10FB580000F0F0F0F0F0F0F0F0F0F0F0F0E0E0C0DD
:10FB68008000E0FCFEFFFFFF7FFFFFFFFFFF0000BC
:10FB7800000000000000000000000000FEFFC701B8
:10FB880001010183FFFF00007CFEC7010101018321
:10FB9800FFFFFF0038FEC78301010183C7FFFF0095
:10FBA8000001FFFF010100FFFF0701010100007FC5
:10FBB800FF80000000FFFF7F0000FFFFFF00000143
:10FBC800FFFFFF010000000000000000000000002F
:10FBD80000030F3F7F7FFFFFFFFFFFFFFFE7C7C760
:10FBE8008F8F9FBFFFFFC3C0F0FFFFFFFFFFFCFC2D
:10FBF800FCFCFCFCFCFCF8F8F0F0E0C0000103039E
:10FC080003030301030300000000010303030301CE
:10FC180001030100000001030303030101030300C2
:10FC280000000303000000030300000000000000C0
:10FC380001030303030301000000010301000000A6
:10FC480003030100000000000000000000000000A5
:10FC58000000000080C0E0F0F9FFFFFFFFFF3F1F3A
:10FC68000F87C7F7FFFF1F1F3DFCF8F8F8F87C7DEA
:10FC7800FFFFFFFFFFFFFFFF7F3F0F070030300050
:10FC8800000000000000000000000000000000006C
:10FC98000000000000FEFEFC000000000000000064
:10FCA8000000000000000000000000000000E0C0AC
:10FCB80000000000000000000000003030000000DC
:10FCC800000000000000000000000000000000002C
:10FCD8000000C0FEFFFFFFFFFFFFFFFFFF7F7F3F2A
:10FCE8001F0F071F7FFFFFF8F8FFFFFFFFFFFEF85A
:10FCF800E0000000010000000000000000FEFE001F
:10FD08000000FCFEFC0C06060EFCF80000F0F81CD7
:10FD18000E0606060CFFFFFF0000FEFE00000000B6
:10FD2800FCFEFC00183C7E66E6CE84000006FFFF61
:10FD38000606FCFEFC0C0606060000FEFE0000C0DF
:10FD4800F8FC4E4646464E7C7840183C76E6CECCCB
:10FD5800800000000000000000000000000000001B
:10FD6800000000000001070F1F1F3F3F3F3F1F0F0C
:10FD7800030000000000000000000000000F0F005A
:10FD880000000F0F0F000000000F0F000003070E08
:10FD98000C18180C060F0F0F0000010F0E0C180C92
:10FDA8000F070100040E0C180C0F070000000F0FBE
:10FDB80000000F0F0F0000000000000F0F000000F0
:10FDC80007070C0C181C0C060600040E0C180C0F68
:10FDD8000700000000000000000000000000000014
:10FDE800000000000000000000000000000000000B
:10FDF80000000000000000000000000000000000FB
:10FE080000000000000000000000000000000000EA
:10FE180000000000000000000000000000000000DA
:10FE280000000000000000000000000000000000CA
:10FE380000000000000000000000000000000000BA
:10FE480000000000000000000000000000000000AA
:10FE580000000000F4FD3F0244A20710000000006B
:10FE6800000000000000000000000000000000008A
:10FE7800000000000000000000000000000000007A
:10FE8800000000000000000000000000000000006A
:10FE9800000000000000000000000000000000005A
:10FEA800000000000000000000000000000000004A
:10FEB800000000000000000000000000F8AF07107C
:04FEC8000000000036
:10FFBE000200100000C05F08A8C05F0818C83F020A
:10FFCE0001000A00FFFFFFFFFFFF00000102030414
:10FFDE0005060708090A0B0C0D0E0F10111213144B
:0EFFEE0015161718191A1B1C1D1E1F203E0089
:04FFFC0078563412ED
:04000005085FC018B8
:00000001FF
